{
  "contractName": "Counter",
  "abi": [
    {
      "anonymous": false,
      "inputs": [
        {
          "indexed": true,
          "internalType": "address",
          "name": "oldRelayHub",
          "type": "address"
        },
        {
          "indexed": true,
          "internalType": "address",
          "name": "newRelayHub",
          "type": "address"
        }
      ],
      "name": "RelayHubChanged",
      "type": "event"
    },
    {
      "inputs": [],
      "name": "getHubAddr",
      "outputs": [
        {
          "internalType": "address",
          "name": "",
          "type": "address"
        }
      ],
      "stateMutability": "view",
      "type": "function",
      "constant": true
    },
    {
      "inputs": [
        {
          "internalType": "bytes",
          "name": "context",
          "type": "bytes"
        },
        {
          "internalType": "bool",
          "name": "success",
          "type": "bool"
        },
        {
          "internalType": "uint256",
          "name": "actualCharge",
          "type": "uint256"
        },
        {
          "internalType": "bytes32",
          "name": "preRetVal",
          "type": "bytes32"
        }
      ],
      "name": "postRelayedCall",
      "outputs": [],
      "stateMutability": "nonpayable",
      "type": "function"
    },
    {
      "inputs": [
        {
          "internalType": "bytes",
          "name": "context",
          "type": "bytes"
        }
      ],
      "name": "preRelayedCall",
      "outputs": [
        {
          "internalType": "bytes32",
          "name": "",
          "type": "bytes32"
        }
      ],
      "stateMutability": "nonpayable",
      "type": "function"
    },
    {
      "inputs": [],
      "name": "relayHubVersion",
      "outputs": [
        {
          "internalType": "string",
          "name": "",
          "type": "string"
        }
      ],
      "stateMutability": "view",
      "type": "function",
      "constant": true
    },
    {
      "inputs": [],
      "name": "value",
      "outputs": [
        {
          "internalType": "uint256",
          "name": "",
          "type": "uint256"
        }
      ],
      "stateMutability": "view",
      "type": "function",
      "constant": true
    },
    {
      "inputs": [],
      "name": "increase",
      "outputs": [],
      "stateMutability": "nonpayable",
      "type": "function"
    },
    {
      "inputs": [
        {
          "internalType": "address",
          "name": "relay",
          "type": "address"
        },
        {
          "internalType": "address",
          "name": "from",
          "type": "address"
        },
        {
          "internalType": "bytes",
          "name": "encodedFunction",
          "type": "bytes"
        },
        {
          "internalType": "uint256",
          "name": "transactionFee",
          "type": "uint256"
        },
        {
          "internalType": "uint256",
          "name": "gasPrice",
          "type": "uint256"
        },
        {
          "internalType": "uint256",
          "name": "gasLimit",
          "type": "uint256"
        },
        {
          "internalType": "uint256",
          "name": "nonce",
          "type": "uint256"
        },
        {
          "internalType": "bytes",
          "name": "approvalData",
          "type": "bytes"
        },
        {
          "internalType": "uint256",
          "name": "maxPossibleCharge",
          "type": "uint256"
        }
      ],
      "name": "acceptRelayedCall",
      "outputs": [
        {
          "internalType": "uint256",
          "name": "",
          "type": "uint256"
        },
        {
          "internalType": "bytes",
          "name": "",
          "type": "bytes"
        }
      ],
      "stateMutability": "view",
      "type": "function",
      "constant": true
    }
  ],
  "bytecode": "0x608060405273d216153c06e857cd7f72665e0af1d7d82172f4946000806101000a81548173ffffffffffffffffffffffffffffffffffffffff021916908373ffffffffffffffffffffffffffffffffffffffff16021790555034801561006457600080fd5b5061073f806100746000396000f3fe608060405234801561001057600080fd5b506004361061007d5760003560e01c806383947ea01161005b57806383947ea0146101a3578063ad61ccd514610364578063e06e0e22146103e7578063e8927fbc146104c25761007d565b80633fa4f2451461008257806374e861d6146100a057806380274db7146100d4575b600080fd5b61008a6104cc565b6040518082815260200191505060405180910390f35b6100a86104d2565b604051808273ffffffffffffffffffffffffffffffffffffffff16815260200191505060405180910390f35b61018d600480360360208110156100ea57600080fd5b810190808035906020019064010000000081111561010757600080fd5b82018360208201111561011957600080fd5b8035906020019184600183028401116401000000008311171561013b57600080fd5b91908080601f016020809104026020016040519081016040528093929190818152602001838380828437600081840152601f19601f8201169050808301925050505050505091929192905050506104fb565b6040518082815260200191505060405180910390f35b6102e260048036036101208110156101ba57600080fd5b81019080803573ffffffffffffffffffffffffffffffffffffffff169060200190929190803573ffffffffffffffffffffffffffffffffffffffff1690602001909291908035906020019064010000000081111561021757600080fd5b82018360208201111561022957600080fd5b8035906020019184600183028401116401000000008311171561024b57600080fd5b9091929391929390803590602001909291908035906020019092919080359060200190929190803590602001909291908035906020019064010000000081111561029457600080fd5b8201836020820111156102a657600080fd5b803590602001918460018302840111640100000000831117156102c857600080fd5b909192939192939080359060200190929190505050610598565b6040518083815260200180602001828103825283818151815260200191508051906020019080838360005b8381101561032857808201518184015260208101905061030d565b50505050905090810190601f1680156103555780820380516001836020036101000a031916815260200191505b50935050505060405180910390f35b61036c6105b8565b6040518080602001828103825283818151815260200191508051906020019080838360005b838110156103ac578082015181840152602081019050610391565b50505050905090810190601f1680156103d95780820380516001836020036101000a031916815260200191505b509250505060405180910390f35b6104c0600480360360808110156103fd57600080fd5b810190808035906020019064010000000081111561041a57600080fd5b82018360208201111561042c57600080fd5b8035906020019184600183028401116401000000008311171561044e57600080fd5b91908080601f016020809104026020016040519081016040528093929190818152602001838380828437600081840152601f19601f82011690508083019250505050505050919291929080351515906020019092919080359060200190929190803590602001909291905050506105f5565b005b6104ca610692565b005b60015481565b60008060009054906101000a900473ffffffffffffffffffffffffffffffffffffffff16905090565b60006105056104d2565b73ffffffffffffffffffffffffffffffffffffffff163373ffffffffffffffffffffffffffffffffffffffff1614610588576040517f08c379a00000000000000000000000000000000000000000000000000000000081526004018080602001828103825260248152602001806106e66024913960400191505060405180910390fd5b610591826106a4565b9050919050565b600060606105a46106ab565b915091509b509b9950505050505050505050565b60606040518060400160405280600581526020017f312e302e30000000000000000000000000000000000000000000000000000000815250905090565b6105fd6104d2565b73ffffffffffffffffffffffffffffffffffffffff163373ffffffffffffffffffffffffffffffffffffffff1614610680576040517f08c379a00000000000000000000000000000000000000000000000000000000081526004018080602001828103825260248152602001806106e66024913960400191505060405180910390fd5b61068c848484846106cf565b50505050565b60018060008282540192505081905550565b6000919050565b600060606106c7604051806020016040528060008152506106d5565b915091509091565b50505050565b600060606000839150915091509156fe47534e526563697069656e743a2063616c6c6572206973206e6f742052656c6179487562a26469706673582212201e39b63361e2d4c6df9e4f30cafb15f903c27285893464c03bb6d483eb8ca50364736f6c634300060c0033",
  "immutableReferences": {},
  "source": "// SPDX-License-Identifier: MIT\npragma solidity ^0.6.0;\n\n\nimport \"@openzeppelin/contracts/GSN/GSNRecipient.sol\";\n\ncontract Counter is GSNRecipient {\n    uint256 public value;\n\n    function increase() public {\n        value += 1;\n    }\n\n    function acceptRelayedCall(\n        address relay,\n        address from,\n        bytes calldata encodedFunction,\n        uint256 transactionFee,\n        uint256 gasPrice,\n        uint256 gasLimit,\n        uint256 nonce,\n        bytes calldata approvalData,\n        uint256 maxPossibleCharge\n    ) override external view returns (uint256, bytes memory) {\n        return _approveRelayedCall();\n    }\n\n    // We won't do any pre or post processing, so leave _preRelayedCall and _postRelayedCall empty\n    function _preRelayedCall(bytes memory context) override internal returns (bytes32) {\n    }\n\n    function _postRelayedCall(bytes memory context, bool, uint256 actualCharge, bytes32) override internal {\n    }\n}",
  "sourcePath": "/Users/user/Desktop/BinanceGSN/contracts/Counter.sol",
  "compiler": {
    "name": "solc",
    "version": "0.6.12+commit.27d51765.Emscripten.clang"
  },
  "schemaVersion": "3.3.1",
  "updatedAt": "2020-12-23T00:39:33.576Z",
  "networkType": "ethereum",
  "devdoc": {
    "kind": "dev",
    "methods": {
      "acceptRelayedCall(address,address,bytes,uint256,uint256,uint256,uint256,bytes,uint256)": {
        "details": "Called by {IRelayHub} to validate if this recipient accepts being charged for a relayed call. Note that the recipient will be charged regardless of the execution result of the relayed call (i.e. if it reverts or not). The relay request was originated by `from` and will be served by `relay`. `encodedFunction` is the relayed call calldata, so its first four bytes are the function selector. The relayed call will be forwarded `gasLimit` gas, and the transaction executed with a gas price of at least `gasPrice`. ``relay``'s fee is `transactionFee`, and the recipient will be charged at most `maxPossibleCharge` (in wei). `nonce` is the sender's (`from`) nonce for replay attack protection in {IRelayHub}, and `approvalData` is a optional parameter that can be used to hold a signature over all or some of the previous values. Returns a tuple, where the first value is used to indicate approval (0) or rejection (custom non-zero error code, values 1 to 10 are reserved) and the second one is data to be passed to the other {IRelayRecipient} functions. {acceptRelayedCall} is called with 50k gas: if it runs out during execution, the request will be considered rejected. A regular revert will also trigger a rejection."
      },
      "getHubAddr()": {
        "details": "Returns the address of the {IRelayHub} contract for this recipient."
      },
      "postRelayedCall(bytes,bool,uint256,bytes32)": {
        "details": "See `IRelayRecipient.postRelayedCall`. This function should not be overridden directly, use `_postRelayedCall` instead. * Requirements: - the caller must be the `RelayHub` contract."
      },
      "preRelayedCall(bytes)": {
        "details": "See `IRelayRecipient.preRelayedCall`. This function should not be overridden directly, use `_preRelayedCall` instead. * Requirements: - the caller must be the `RelayHub` contract."
      },
      "relayHubVersion()": {
        "details": "Returns the version string of the {IRelayHub} for which this recipient implementation was built. If {_upgradeRelayHub} is used, the new {IRelayHub} instance should be compatible with this version."
      }
    },
    "version": 1
  },
  "userdoc": {
    "kind": "user",
    "methods": {},
    "version": 1
  }
}